{
  "contractName": "SendEth",
  "abi": [
    {
      "inputs": [],
      "stateMutability": "nonpayable",
      "type": "constructor"
    },
    {
      "inputs": [
        {
          "internalType": "uint256",
          "name": "",
          "type": "uint256"
        }
      ],
      "name": "Clients",
      "outputs": [
        {
          "internalType": "address payable",
          "name": "",
          "type": "address"
        }
      ],
      "stateMutability": "view",
      "type": "function"
    },
    {
      "inputs": [],
      "name": "amount",
      "outputs": [
        {
          "internalType": "uint256",
          "name": "",
          "type": "uint256"
        }
      ],
      "stateMutability": "view",
      "type": "function"
    },
    {
      "stateMutability": "payable",
      "type": "receive"
    },
    {
      "inputs": [],
      "name": "CheckBalance",
      "outputs": [
        {
          "internalType": "uint256",
          "name": "",
          "type": "uint256"
        }
      ],
      "stateMutability": "view",
      "type": "function"
    },
    {
      "inputs": [
        {
          "internalType": "address payable",
          "name": "pay",
          "type": "address"
        }
      ],
      "name": "SendEther",
      "outputs": [],
      "stateMutability": "payable",
      "type": "function"
    }
  ],
  "bytecode": "0x6080604052670de0b6b3a764000060015534801561001c57600080fd5b50336000806101000a81548173ffffffffffffffffffffffffffffffffffffffff021916908373ffffffffffffffffffffffffffffffffffffffff16021790555061043b8061006c6000396000f3fe6080604052600436106100435760003560e01c806344e73b78146100c557806352a051bc146100f0578063aa8c217c1461010c578063e333f57b14610137576100c0565b366100c057670de0b6b3a7640000341461005c57600080fd5b6002339080600181540180825580915050600190039060005260206000200160009091909190916101000a81548173ffffffffffffffffffffffffffffffffffffffff021916908373ffffffffffffffffffffffffffffffffffffffff1602179055005b600080fd5b3480156100d157600080fd5b506100da610174565b6040516100e791906102d7565b60405180910390f35b61010a60048036038101906101059190610355565b6101d5565b005b34801561011857600080fd5b50610121610279565b60405161012e91906102d7565b60405180910390f35b34801561014357600080fd5b5061015e600480360381019061015991906103ae565b61027f565b60405161016b91906103ea565b60405180910390f35b60008060009054906101000a900473ffffffffffffffffffffffffffffffffffffffff1673ffffffffffffffffffffffffffffffffffffffff163373ffffffffffffffffffffffffffffffffffffffff16146101cf57600080fd5b47905090565b60008054906101000a900473ffffffffffffffffffffffffffffffffffffffff1673ffffffffffffffffffffffffffffffffffffffff163373ffffffffffffffffffffffffffffffffffffffff161461022d57600080fd5b8073ffffffffffffffffffffffffffffffffffffffff166108fc6001549081150290604051600060405180830381858888f19350505050158015610275573d6000803e3d6000fd5b5050565b60015481565b6002818154811061028f57600080fd5b906000526020600020016000915054906101000a900473ffffffffffffffffffffffffffffffffffffffff1681565b6000819050919050565b6102d1816102be565b82525050565b60006020820190506102ec60008301846102c8565b92915050565b600080fd5b600073ffffffffffffffffffffffffffffffffffffffff82169050919050565b6000610322826102f7565b9050919050565b61033281610317565b811461033d57600080fd5b50565b60008135905061034f81610329565b92915050565b60006020828403121561036b5761036a6102f2565b5b600061037984828501610340565b91505092915050565b61038b816102be565b811461039657600080fd5b50565b6000813590506103a881610382565b92915050565b6000602082840312156103c4576103c36102f2565b5b60006103d284828501610399565b91505092915050565b6103e481610317565b82525050565b60006020820190506103ff60008301846103db565b9291505056fea26469706673582212201d48a1a911fc146b2c5ebe71a5daa21cd05226c1a2c3803357508e7cff922bb664736f6c634300080d0033",
  "immutableReferences": {},
  "source": "pragma solidity >= 0.5.0 < 0.9.0;\ncontract SendEth\n{\n    address owner ;\n    uint public amount = 1 ether;\n    address payable [] public Clients;      \n     constructor()\n     {\n        owner= msg.sender;\n    }\n        receive() external payable\n         {\n            require(msg.value==1 ether);\n            Clients.push(payable(msg.sender));\n         }\n           function CheckBalance() public view returns(uint)\n        {\n\n        require(msg.sender==owner);\n        return address(this).balance;\n        }\n    function SendEther( address payable pay) public payable\n    {\n        require(msg.sender==owner);\n        // require(msg.value==1 ether);\n        //  pay.transfer(msg.value);\n        // require(amount<= 10 ether);\n        pay.transfer(amount);\n\n    }\n\n        \n\n}",
  "sourcePath": "/Users/amit/Desktop/Assignment -2-Amit/contracts/Assignment-Send-Recieve-Ethers.sol",
  "compiler": {
    "name": "solc",
    "version": "0.8.13+commit.abaa5c0e.Emscripten.clang"
  },
  "schemaVersion": "3.4.7",
  "updatedAt": "2022-06-02T12:21:18.657Z",
  "devdoc": {
    "kind": "dev",
    "methods": {},
    "version": 1
  },
  "userdoc": {
    "kind": "user",
    "methods": {},
    "version": 1
  }
}